{
  "transactions": [
    {
      "hash": "0x8a312f195fdf9dc90d59799db451b75f2ba9e757b7835e9837325ade8bdc5baa",
      "transactionType": "CREATE",
      "contractName": "MyServiceManager",
      "contractAddress": "0xcdee1275f3b94242bfea776fb4805c311773f482",
      "function": null,
      "arguments": [
        "0x055733000064333CaDDbC92763c58BF0192fFeBf"
      ],
      "transaction": {
        "from": "0xbce758c6af31053c9a766323a9f034709c2ca8a9",
        "gas": "0x116f4a",
        "value": "0x0",
        "input": "0x60a0604052348015600e575f5ffd5b50604051610f70380380610f70833981016040819052602b91603b565b6001600160a01b03166080526066565b5f60208284031215604a575f5ffd5b81516001600160a01b0381168114605f575f5ffd5b9392505050565b608051610ee561008b5f395f818160cb015281816102c301526103e60152610ee55ff3fe608060405234801561000f575f5ffd5b5060043610610090575f3560e01c80639926ee7d116100635780639926ee7d14610149578063a364f4da1461015e578063c20bab7f14610171578063d486b38514610191578063ec7fbb31146101a4575f5ffd5b80632d89f6fc146100945780636b3aa72e146100c657806385edf874146101055780638b00ce7c14610125575b5f5ffd5b6100b36100a236600461083a565b60026020525f908152604090205481565b6040519081526020015b60405180910390f35b6100ed7f000000000000000000000000000000000000000000000000000000000000000081565b6040516001600160a01b0390911681526020016100bd565b6101186101133660046108e3565b6101d6565b6040516100bd919061095d565b5f546101349063ffffffff1681565b60405163ffffffff90911681526020016100bd565b61015c6101573660046109c8565b6102ac565b005b61015c61016c366004610a76565b610350565b61018461017f366004610a8f565b61045d565b6040516100bd9190610ac0565b61015c61019f366004610ad2565b6104ff565b6101c66101b2366004610a76565b60016020525f908152604090205460ff1681565b60405190151581526020016100bd565b604080518082018252606081525f602080830191909152825180840184528481524363ffffffff168183015292519192916102139183910161095d565b60408051601f1981840301815282825280516020918201205f805463ffffffff9081168252600290935292832055905416907f58180a6a0403a63c2b5ce4b85d129d46a80d37851b2216bd0a98b59e7309b8479061027290849061095d565b60405180910390a25f5461028d9063ffffffff166001610ba5565b5f805463ffffffff191663ffffffff9290921691909117905592915050565b604051639926ee7d60e01b81526001600160a01b037f00000000000000000000000000000000000000000000000000000000000000001690639926ee7d906102fa9085908590600401610bd3565b5f604051808303815f87803b158015610311575f5ffd5b505af1158015610323573d5f5f3e3d5ffd5b5050506001600160a01b039092165f908152600160208190526040909120805460ff191690911790555050565b335f9081526001602052604090205460ff166103b35760405162461bcd60e51b815260206004820152601b60248201527f4f70657261746f72206d757374206265207468652063616c6c6572000000000060448201526064015b60405180910390fd5b336001600160a01b038216146103c7575f5ffd5b6040516351b27a6d60e11b81526001600160a01b0382811660048301527f0000000000000000000000000000000000000000000000000000000000000000169063a364f4da906024015f604051808303815f87803b158015610427575f5ffd5b505af1158015610439573d5f5f3e3d5ffd5b505050506001600160a01b03165f908152600160205260409020805460ff19169055565b600360209081525f92835260408084209091529082529020805461048090610c1d565b80601f01602080910402602001604051908101604052809291908181526020018280546104ac90610c1d565b80156104f75780601f106104ce576101008083540402835291602001916104f7565b820191905f5260205f20905b8154815290600101906020018083116104da57829003601f168201915b505050505081565b335f9081526001602052604090205460ff1661055d5760405162461bcd60e51b815260206004820152601b60248201527f4f70657261746f72206d757374206265207468652063616c6c6572000000000060448201526064016103aa565b63ffffffff84165f9081526002602090815260409182902054915161058491889101610cf0565b604051602081830303815290604052805190602001201461060d5760405162461bcd60e51b815260206004820152603d60248201527f737570706c696564207461736b20646f6573206e6f74206d617463682074686560448201527f206f6e65207265636f7264656420696e2074686520636f6e747261637400000060648201526084016103aa565b335f90815260036020908152604080832063ffffffff881684529091529020805461063790610c1d565b1590506106995760405162461bcd60e51b815260206004820152602a60248201527f4f70657261746f722068617320616c726561647920726573706f6e64656420746044820152696f20746865207461736b60b01b60648201526084016103aa565b5f83836106a68880610d02565b6040516020016106b99493929190610d4b565b6040516020818303038152906040528051906020012090505f610700826020527b19457468657265756d205369676e6564204d6573736167653a0a33325f52603c60042090565b90503361070d8285610796565b6001600160a01b03161461071f575f5ffd5b335f90815260036020908152604080832063ffffffff8a16845290915290206107488482610db6565b508563ffffffff167f825f266d26f849555c4e816a5b281c0840821222f2677a97a489b5d8335d3649888787336040516107859493929190610e70565b60405180910390a250505050505050565b5f6040518251604081146107b257604181146107d3575061080e565b604084015160ff81901c601b016020526001600160ff1b03166060526107e6565b60608401515f1a60205260408401516060525b50835f5260208301516040526020600160805f60015afa5191505f606052806040523d61081b575b638baa579f5f526004601cfd5b5092915050565b803563ffffffff81168114610835575f5ffd5b919050565b5f6020828403121561084a575f5ffd5b61085382610822565b9392505050565b634e487b7160e01b5f52604160045260245ffd5b5f5f6001600160401b038411156108875761088761085a565b50604051601f19601f85018116603f011681018181106001600160401b03821117156108b5576108b561085a565b6040528381529050808284018510156108cc575f5ffd5b838360208301375f60208583010152509392505050565b5f602082840312156108f3575f5ffd5b81356001600160401b03811115610908575f5ffd5b8201601f81018413610918575f5ffd5b6109278482356020840161086e565b949350505050565b5f81518084528060208401602086015e5f602082860101526020601f19601f83011685010191505092915050565b602081525f825160406020840152610978606084018261092f565b905063ffffffff60208501511660408401528091505092915050565b80356001600160a01b0381168114610835575f5ffd5b5f82601f8301126109b9575f5ffd5b6108538383356020850161086e565b5f5f604083850312156109d9575f5ffd5b6109e283610994565b915060208301356001600160401b038111156109fc575f5ffd5b830160608186031215610a0d575f5ffd5b604051606081016001600160401b0381118282101715610a2f57610a2f61085a565b60405281356001600160401b03811115610a47575f5ffd5b610a53878285016109aa565b825250602082013560208201526040820135604082015280925050509250929050565b5f60208284031215610a86575f5ffd5b61085382610994565b5f5f60408385031215610aa0575f5ffd5b610aa983610994565b9150610ab760208401610822565b90509250929050565b602081525f610853602083018461092f565b5f5f5f5f5f60808688031215610ae6575f5ffd5b85356001600160401b03811115610afb575f5ffd5b860160408189031215610b0c575f5ffd5b9450610b1a60208701610822565b935060408601356001600160401b03811115610b34575f5ffd5b8601601f81018813610b44575f5ffd5b80356001600160401b03811115610b59575f5ffd5b886020828401011115610b6a575f5ffd5b6020919091019350915060608601356001600160401b03811115610b8c575f5ffd5b610b98888289016109aa565b9150509295509295909350565b63ffffffff8181168382160190811115610bcd57634e487b7160e01b5f52601160045260245ffd5b92915050565b60018060a01b0383168152604060208201525f825160606040840152610bfc60a084018261092f565b90506020840151606084015260408401516080840152809150509392505050565b600181811c90821680610c3157607f821691505b602082108103610c4f57634e487b7160e01b5f52602260045260245ffd5b50919050565b81835281816020850137505f828201602090810191909152601f909101601f19169091010190565b5f8135601e19833603018112610c91575f5ffd5b82016020810190356001600160401b03811115610cac575f5ffd5b803603821315610cba575f5ffd5b60408552610ccc604086018284610c55565b91505063ffffffff610ce060208501610822565b1660208501528091505092915050565b602081525f6108536020830184610c7d565b5f5f8335601e19843603018112610d17575f5ffd5b8301803591506001600160401b03821115610d30575f5ffd5b602001915036819003821315610d44575f5ffd5b9250929050565b838582375f8482015f8152838582375f93019283525090949350505050565b601f821115610db157805f5260205f20601f840160051c81016020851015610d8f5750805b601f840160051c820191505b81811015610dae575f8155600101610d9b565b50505b505050565b81516001600160401b03811115610dcf57610dcf61085a565b610de381610ddd8454610c1d565b84610d6a565b6020601f821160018114610e15575f8315610dfe5750848201515b5f19600385901b1c1916600184901b178455610dae565b5f84815260208120601f198516915b82811015610e445787850151825560209485019460019092019101610e24565b5084821015610e6157868401515f19600387901b60f8161c191681555b50505050600190811b01905550565b606081525f610e826060830187610c7d565b8281036020840152610e95818688610c55565b91505060018060a01b03831660408301529594505050505056fea2646970667358221220b8806758d4c48c17690a5c8d868caf422a5a1221d1517c5a5053d3b41ffdce4564736f6c634300081c0033000000000000000000000000055733000064333caddbc92763c58bf0192ffebf",
        "nonce": "0x2",
        "chainId": "0x4268"
      },
      "additionalContracts": [],
      "isFixedGasLimit": false
    },
    {
      "hash": "0x9bd3b6025461bc6cff1bde37a7cef94de6d693ac57139eadd6415bed57df4b01",
      "transactionType": "CALL",
      "contractName": null,
      "contractAddress": "0xa44151489861fe9e3055d95adc98fbd462b948e7",
      "function": "registerAsOperator(address,uint32,string)",
      "arguments": [
        "0x0000000000000000000000000000000000000000",
        "0",
        ""
      ],
      "transaction": {
        "from": "0xbce758c6af31053c9a766323a9f034709c2ca8a9",
        "to": "0xa44151489861fe9e3055d95adc98fbd462b948e7",
        "gas": "0x2b9e8",
        "value": "0x0",
        "input": "0x2aa6d8880000000000000000000000000000000000000000000000000000000000000000000000000000000000000000000000000000000000000000000000000000000000000000000000000000000000000000000000000000000000000000000000600000000000000000000000000000000000000000000000000000000000000000",
        "nonce": "0x3",
        "chainId": "0x4268"
      },
      "additionalContracts": [],
      "isFixedGasLimit": false
    },
    {
      "hash": "0x1be0f8fe5abbf245dbd27691a63d14300b13478336362168b6ca7404fd9ac273",
      "transactionType": "CALL",
      "contractName": "MyServiceManager",
      "contractAddress": "0xcdee1275f3b94242bfea776fb4805c311773f482",
      "function": "registerOperatorToAVS(address,(bytes,bytes32,uint256))",
      "arguments": [
        "0xBcE758C6AF31053C9a766323a9F034709C2CA8a9",
        "(0xd97f1fd6153fe9b76c43916dc2097c7d4c329dea6e98faccf1e0cfb7af5d63a24c74696b596e6bf963a800c0489acddbd991eaaea651e4a2a10c60fb99b9e1cc1b, 0x23d1e1807babfbb924878125cd86ab7f75a8a35ed41f0158951c1778b24e0129, 1738937988)"
      ],
      "transaction": {
        "from": "0xbce758c6af31053c9a766323a9f034709c2ca8a9",
        "to": "0xcdee1275f3b94242bfea776fb4805c311773f482",
        "gas": "0x2a30a",
        "value": "0x0",
        "input": "0x9926ee7d000000000000000000000000bce758c6af31053c9a766323a9f034709c2ca8a90000000000000000000000000000000000000000000000000000000000000040000000000000000000000000000000000000000000000000000000000000006023d1e1807babfbb924878125cd86ab7f75a8a35ed41f0158951c1778b24e01290000000000000000000000000000000000000000000000000000000067a616840000000000000000000000000000000000000000000000000000000000000041d97f1fd6153fe9b76c43916dc2097c7d4c329dea6e98faccf1e0cfb7af5d63a24c74696b596e6bf963a800c0489acddbd991eaaea651e4a2a10c60fb99b9e1cc1b00000000000000000000000000000000000000000000000000000000000000",
        "nonce": "0x4",
        "chainId": "0x4268"
      },
      "additionalContracts": [],
      "isFixedGasLimit": false
    }
  ],
  "receipts": [
    {
      "status": "0x1",
      "cumulativeGasUsed": "0x2e4813",
      "logs": [],
      "logsBloom": "0x00000000000000000000000000000000000000000000000000000000000000000000000000000000000000000000000000000000000000000000000000000000000000000000000000000000000000000000000000000000000000000000000000000000000000000000000000000000000000000000000000000000000000000000000000000000000000000000000000000000000000000000000000000000000000000000000000000000000000000000000000000000000000000000000000000000000000000000000000000000000000000000000000000000000000000000000000000000000000000000000000000000000000000000000000000000",
      "type": "0x2",
      "transactionHash": "0x8a312f195fdf9dc90d59799db451b75f2ba9e757b7835e9837325ade8bdc5baa",
      "transactionIndex": "0xd",
      "blockHash": "0x96b5fce3093064cbeb9835e2afb3c5c0214179fb8f705e7acdaa89dcde5349f8",
      "blockNumber": "0x326b2c",
      "gasUsed": "0xd694d",
      "effectiveGasPrice": "0xf4251",
      "from": "0xbce758c6af31053c9a766323a9f034709c2ca8a9",
      "to": null,
      "contractAddress": "0xcdee1275f3b94242bfea776fb4805c311773f482"
    },
    {
      "status": "0x1",
      "cumulativeGasUsed": "0x304159",
      "logs": [
        {
          "address": "0x78469728304326cbc65f8f95fa756b0b73164462",
          "topics": [
            "0x4e85751d6331506c6c62335f207eb31f12a61e570f34f5c17640308785c6d4db"
          ],
          "data": "0x000000000000000000000000bce758c6af31053c9a766323a9f034709c2ca8a900000000000000000000000000000000000000000000000000000000000000000000000000000000000000000000000000000000000000000000000000326b77",
          "blockHash": "0x96b5fce3093064cbeb9835e2afb3c5c0214179fb8f705e7acdaa89dcde5349f8",
          "blockNumber": "0x326b2c",
          "transactionHash": "0x9bd3b6025461bc6cff1bde37a7cef94de6d693ac57139eadd6415bed57df4b01",
          "transactionIndex": "0xe",
          "logIndex": "0x22",
          "removed": false
        },
        {
          "address": "0xa44151489861fe9e3055d95adc98fbd462b948e7",
          "topics": [
            "0x773b54c04d756fcc5e678111f7d730de3be98192000799eee3d63716055a87c6",
            "0x000000000000000000000000bce758c6af31053c9a766323a9f034709c2ca8a9"
          ],
          "data": "0x0000000000000000000000000000000000000000000000000000000000000000",
          "blockHash": "0x96b5fce3093064cbeb9835e2afb3c5c0214179fb8f705e7acdaa89dcde5349f8",
          "blockNumber": "0x326b2c",
          "transactionHash": "0x9bd3b6025461bc6cff1bde37a7cef94de6d693ac57139eadd6415bed57df4b01",
          "transactionIndex": "0xe",
          "logIndex": "0x23",
          "removed": false
        },
        {
          "address": "0xa44151489861fe9e3055d95adc98fbd462b948e7",
          "topics": [
            "0xc3ee9f2e5fda98e8066a1f745b2df9285f416fe98cf2559cd21484b3d8743304",
            "0x000000000000000000000000bce758c6af31053c9a766323a9f034709c2ca8a9",
            "0x000000000000000000000000bce758c6af31053c9a766323a9f034709c2ca8a9"
          ],
          "data": "0x",
          "blockHash": "0x96b5fce3093064cbeb9835e2afb3c5c0214179fb8f705e7acdaa89dcde5349f8",
          "blockNumber": "0x326b2c",
          "transactionHash": "0x9bd3b6025461bc6cff1bde37a7cef94de6d693ac57139eadd6415bed57df4b01",
          "transactionIndex": "0xe",
          "logIndex": "0x24",
          "removed": false
        },
        {
          "address": "0xa44151489861fe9e3055d95adc98fbd462b948e7",
          "topics": [
            "0xa453db612af59e5521d6ab9284dc3e2d06af286eb1b1b7b771fce4716c19f2c1",
            "0x000000000000000000000000bce758c6af31053c9a766323a9f034709c2ca8a9"
          ],
          "data": "0x0000000000000000000000000000000000000000000000000000000000000000",
          "blockHash": "0x96b5fce3093064cbeb9835e2afb3c5c0214179fb8f705e7acdaa89dcde5349f8",
          "blockNumber": "0x326b2c",
          "transactionHash": "0x9bd3b6025461bc6cff1bde37a7cef94de6d693ac57139eadd6415bed57df4b01",
          "transactionIndex": "0xe",
          "logIndex": "0x25",
          "removed": false
        },
        {
          "address": "0xa44151489861fe9e3055d95adc98fbd462b948e7",
          "topics": [
            "0x02a919ed0e2acad1dd90f17ef2fa4ae5462ee1339170034a8531cca4b6708090",
            "0x000000000000000000000000bce758c6af31053c9a766323a9f034709c2ca8a9"
          ],
          "data": "0x00000000000000000000000000000000000000000000000000000000000000200000000000000000000000000000000000000000000000000000000000000000",
          "blockHash": "0x96b5fce3093064cbeb9835e2afb3c5c0214179fb8f705e7acdaa89dcde5349f8",
          "blockNumber": "0x326b2c",
          "transactionHash": "0x9bd3b6025461bc6cff1bde37a7cef94de6d693ac57139eadd6415bed57df4b01",
          "transactionIndex": "0xe",
          "logIndex": "0x26",
          "removed": false
        }
      ],
      "logsBloom": "0x00000010000020000100000000000000000000000000000000000001000000000000010000000000000000000000000000000020001040002000002000000000000000000000000000000000000000000000000000000000000000000008000000000000000000000000000000000000000000000000200000000000000000000000000000100000000000000000000000800000000000000240000000000000000000000000000000000000000000000000000000000000000000000000000000000000101000000000000000040000090000000000004000000000000000000000000000000000000000000000000002000000000000000000040000000000",
      "type": "0x2",
      "transactionHash": "0x9bd3b6025461bc6cff1bde37a7cef94de6d693ac57139eadd6415bed57df4b01",
      "transactionIndex": "0xe",
      "blockHash": "0x96b5fce3093064cbeb9835e2afb3c5c0214179fb8f705e7acdaa89dcde5349f8",
      "blockNumber": "0x326b2c",
      "gasUsed": "0x1f946",
      "effectiveGasPrice": "0xf4251",
      "from": "0xbce758c6af31053c9a766323a9f034709c2ca8a9",
      "to": "0xa44151489861fe9e3055d95adc98fbd462b948e7",
      "contractAddress": null
    },
    {
      "status": "0x1",
      "cumulativeGasUsed": "0x322a11",
      "logs": [
        {
          "address": "0x055733000064333caddbc92763c58bf0192ffebf",
          "topics": [
            "0xf0952b1c65271d819d39983d2abb044b9cace59bcc4d4dd389f586ebdcb15b41",
            "0x000000000000000000000000bce758c6af31053c9a766323a9f034709c2ca8a9",
            "0x000000000000000000000000cdee1275f3b94242bfea776fb4805c311773f482"
          ],
          "data": "0x0000000000000000000000000000000000000000000000000000000000000001",
          "blockHash": "0x96b5fce3093064cbeb9835e2afb3c5c0214179fb8f705e7acdaa89dcde5349f8",
          "blockNumber": "0x326b2c",
          "transactionHash": "0x1be0f8fe5abbf245dbd27691a63d14300b13478336362168b6ca7404fd9ac273",
          "transactionIndex": "0xf",
          "logIndex": "0x27",
          "removed": false
        }
      ],
      "logsBloom": "0x00000000000000000000000000000000000000000000000000000000000040000000000000000000000000000000000000000000000000000000002000000000000000000000000000000000000000000000000000008000000000000008000000000000800000000000008000000000000000000000000000000000000000000000000000100004000000000000000000001000000000000000000000800000000000001000000000000000000000000000000000000000000000000080000000000000000000000000000000000000000000000000000000000000000000000000000000000000000000000000000000000000000000000000000000000000",
      "type": "0x2",
      "transactionHash": "0x1be0f8fe5abbf245dbd27691a63d14300b13478336362168b6ca7404fd9ac273",
      "transactionIndex": "0xf",
      "blockHash": "0x96b5fce3093064cbeb9835e2afb3c5c0214179fb8f705e7acdaa89dcde5349f8",
      "blockNumber": "0x326b2c",
      "gasUsed": "0x1e8b8",
      "effectiveGasPrice": "0xf4251",
      "from": "0xbce758c6af31053c9a766323a9f034709c2ca8a9",
      "to": "0xcdee1275f3b94242bfea776fb4805c311773f482",
      "contractAddress": null
    }
  ],
  "libraries": [],
  "pending": [],
  "returns": {},
  "timestamp": 1738934476,
  "chain": 17000,
  "commit": "e6b48ca"
}